{
  "_format": "hh-sol-artifact-1",
  "contractName": "TokenSwapper",
  "sourceName": "contracts/TokenSwapper.sol",
  "abi": [
    {
      "inputs": [
        {
          "internalType": "contract IERC20",
          "name": "_token",
          "type": "address"
        }
      ],
      "stateMutability": "nonpayable",
      "type": "constructor"
    },
    {
      "anonymous": false,
      "inputs": [
        {
          "indexed": false,
          "internalType": "address",
          "name": "account",
          "type": "address"
        },
        {
          "indexed": false,
          "internalType": "address",
          "name": "token",
          "type": "address"
        },
        {
          "indexed": false,
          "internalType": "uint256",
          "name": "amount",
          "type": "uint256"
        },
        {
          "indexed": false,
          "internalType": "uint256",
          "name": "rate",
          "type": "uint256"
        }
      ],
      "name": "TokenPurchased",
      "type": "event"
    },
    {
      "anonymous": false,
      "inputs": [
        {
          "indexed": false,
          "internalType": "address",
          "name": "account",
          "type": "address"
        },
        {
          "indexed": false,
          "internalType": "address",
          "name": "token",
          "type": "address"
        },
        {
          "indexed": false,
          "internalType": "uint256",
          "name": "amount",
          "type": "uint256"
        },
        {
          "indexed": false,
          "internalType": "uint256",
          "name": "rate",
          "type": "uint256"
        }
      ],
      "name": "TokenSold",
      "type": "event"
    },
    {
      "inputs": [],
      "name": "SendEther",
      "outputs": [],
      "stateMutability": "payable",
      "type": "function"
    },
    {
      "inputs": [],
      "name": "buyToken",
      "outputs": [],
      "stateMutability": "payable",
      "type": "function"
    },
    {
      "inputs": [],
      "name": "rate",
      "outputs": [
        {
          "internalType": "uint256",
          "name": "",
          "type": "uint256"
        }
      ],
      "stateMutability": "view",
      "type": "function"
    },
    {
      "inputs": [
        {
          "internalType": "uint256",
          "name": "_amount",
          "type": "uint256"
        }
      ],
      "name": "sellToken",
      "outputs": [],
      "stateMutability": "nonpayable",
      "type": "function"
    },
    {
      "inputs": [],
      "name": "testing",
      "outputs": [
        {
          "internalType": "string",
          "name": "",
          "type": "string"
        }
      ],
      "stateMutability": "pure",
      "type": "function"
    },
    {
      "inputs": [],
      "name": "token",
      "outputs": [
        {
          "internalType": "contract IERC20",
          "name": "",
          "type": "address"
        }
      ],
      "stateMutability": "view",
      "type": "function"
    }
  ],
  "bytecode": "0x6080604052606460015534801561001557600080fd5b50604051610d11380380610d1183398181016040528101906100379190610092565b806000806101000a81548173ffffffffffffffffffffffffffffffffffffffff021916908373ffffffffffffffffffffffffffffffffffffffff16021790555050610116565b60008151905061008c816100ff565b92915050565b6000602082840312156100a457600080fd5b60006100b28482850161007d565b91505092915050565b60006100c6826100df565b9050919050565b60006100d8826100bb565b9050919050565b600073ffffffffffffffffffffffffffffffffffffffff82169050919050565b610108816100cd565b811461011357600080fd5b50565b610bec806101256000396000f3fe6080604052600436106100555760003560e01c80632397e4d71461005a5780632c4e722e146100835780638d03b102146100ae57806398865b71146100d9578063a4821719146100e3578063fc0c546a146100ed575b600080fd5b34801561006657600080fd5b50610081600480360381019061007c9190610797565b610118565b005b34801561008f57600080fd5b50610098610346565b6040516100a5919061098f565b60405180910390f35b3480156100ba57600080fd5b506100c361034c565b6040516100d0919061094d565b60405180910390f35b6100e1610389565b005b6100eb61038b565b005b3480156100f957600080fd5b50610102610649565b60405161010f9190610932565b60405180910390f35b8060008054906101000a900473ffffffffffffffffffffffffffffffffffffffff1673ffffffffffffffffffffffffffffffffffffffff166370a08231336040518263ffffffff1660e01b81526004016101729190610872565b60206040518083038186803b15801561018a57600080fd5b505afa15801561019e573d6000803e3d6000fd5b505050506040513d601f19601f820116820180604052508101906101c291906107c0565b10156101cd57600080fd5b6000600154826101dd91906109c6565b9050804710156101ec57600080fd5b60008054906101000a900473ffffffffffffffffffffffffffffffffffffffff1673ffffffffffffffffffffffffffffffffffffffff166323b872dd3330856040518463ffffffff1660e01b81526004016102499392919061088d565b602060405180830381600087803b15801561026357600080fd5b505af1158015610277573d6000803e3d6000fd5b505050506040513d601f19601f8201168201806040525081019061029b919061076e565b503373ffffffffffffffffffffffffffffffffffffffff166108fc829081150290604051600060405180830381858888f193505050501580156102e2573d6000803e3d6000fd5b507fa8a7473f10e62cf9687e243de1c3ac8b3cbc3dd04b96826beb3a65b5953858143360008054906101000a900473ffffffffffffffffffffffffffffffffffffffff168460015460405161033a94939291906108c4565b60405180910390a15050565b60015481565b60606040518060400160405280600381526020017f3132330000000000000000000000000000000000000000000000000000000000815250905090565b565b60006001543461039b91906109f7565b905061044e60008054906101000a900473ffffffffffffffffffffffffffffffffffffffff1673ffffffffffffffffffffffffffffffffffffffff166370a08231306040518263ffffffff1660e01b81526004016103f99190610872565b60206040518083038186803b15801561041157600080fd5b505afa158015610425573d6000803e3d6000fd5b505050506040513d601f19601f8201168201806040525081019061044991906107c0565b61066d565b8060008054906101000a900473ffffffffffffffffffffffffffffffffffffffff1673ffffffffffffffffffffffffffffffffffffffff166370a08231306040518263ffffffff1660e01b81526004016104a89190610872565b60206040518083038186803b1580156104c057600080fd5b505afa1580156104d4573d6000803e3d6000fd5b505050506040513d601f19601f820116820180604052508101906104f891906107c0565b1015610539576040517f08c379a00000000000000000000000000000000000000000000000000000000081526004016105309061096f565b60405180910390fd5b60008054906101000a900473ffffffffffffffffffffffffffffffffffffffff1673ffffffffffffffffffffffffffffffffffffffff1663a9059cbb33836040518363ffffffff1660e01b8152600401610594929190610909565b602060405180830381600087803b1580156105ae57600080fd5b505af11580156105c2573d6000803e3d6000fd5b505050506040513d601f19601f820116820180604052508101906105e6919061076e565b507f8daf503382665d950e449b86172be5222275c90f4ddf69c29fdaa8237a562a6d3360008054906101000a900473ffffffffffffffffffffffffffffffffffffffff168360015460405161063e94939291906108c4565b60405180910390a150565b60008054906101000a900473ffffffffffffffffffffffffffffffffffffffff1681565b61070381604051602401610681919061098f565b6040516020818303038152906040527ff5b1bba9000000000000000000000000000000000000000000000000000000007bffffffffffffffffffffffffffffffffffffffffffffffffffffffff19166020820180517bffffffffffffffffffffffffffffffffffffffffffffffffffffffff8381831617835250505050610706565b50565b60008151905060006a636f6e736f6c652e6c6f679050602083016000808483855afa5050505050565b60008151905061073e81610b88565b92915050565b60008135905061075381610b9f565b92915050565b60008151905061076881610b9f565b92915050565b60006020828403121561078057600080fd5b600061078e8482850161072f565b91505092915050565b6000602082840312156107a957600080fd5b60006107b784828501610744565b91505092915050565b6000602082840312156107d257600080fd5b60006107e084828501610759565b91505092915050565b6107f281610a51565b82525050565b61080181610a99565b82525050565b6000610812826109aa565b61081c81856109b5565b935061082c818560208601610abd565b61083581610b4e565b840191505092915050565b600061084d6010836109b5565b915061085882610b5f565b602082019050919050565b61086c81610a8f565b82525050565b600060208201905061088760008301846107e9565b92915050565b60006060820190506108a260008301866107e9565b6108af60208301856107e9565b6108bc6040830184610863565b949350505050565b60006080820190506108d960008301876107e9565b6108e660208301866107e9565b6108f36040830185610863565b6109006060830184610863565b95945050505050565b600060408201905061091e60008301856107e9565b61092b6020830184610863565b9392505050565b600060208201905061094760008301846107f8565b92915050565b600060208201905081810360008301526109678184610807565b905092915050565b6000602082019050818103600083015261098881610840565b9050919050565b60006020820190506109a46000830184610863565b92915050565b600081519050919050565b600082825260208201905092915050565b60006109d182610a8f565b91506109dc83610a8f565b9250826109ec576109eb610b1f565b5b828204905092915050565b6000610a0282610a8f565b9150610a0d83610a8f565b9250817fffffffffffffffffffffffffffffffffffffffffffffffffffffffffffffffff0483118215151615610a4657610a45610af0565b5b828202905092915050565b6000610a5c82610a6f565b9050919050565b60008115159050919050565b600073ffffffffffffffffffffffffffffffffffffffff82169050919050565b6000819050919050565b6000610aa482610aab565b9050919050565b6000610ab682610a6f565b9050919050565b60005b83811015610adb578082015181840152602081019050610ac0565b83811115610aea576000848401525b50505050565b7f4e487b7100000000000000000000000000000000000000000000000000000000600052601160045260246000fd5b7f4e487b7100000000000000000000000000000000000000000000000000000000600052601260045260246000fd5b6000601f19601f8301169050919050565b7f4e6f7420656e6f75676820746f6b656e00000000000000000000000000000000600082015250565b610b9181610a63565b8114610b9c57600080fd5b50565b610ba881610a8f565b8114610bb357600080fd5b5056fea2646970667358221220167777fa07a30a41cc16d9f5ca5aa8bd7d81049f740a54b4d07c9520495ae8cd64736f6c63430008040033",
  "linkReferences": {},
  "deployedLinkReferences": {}
}