{
  "_format": "hh-sol-artifact-1",
  "contractName": "MyContract",
  "sourceName": "contracts/MyContract.sol",
  "abi": [
    {
      "inputs": [],
      "stateMutability": "nonpayable",
      "type": "constructor"
    },
    {
      "anonymous": false,
      "inputs": [
        {
          "indexed": false,
          "internalType": "uint256",
          "name": "id",
          "type": "uint256"
        },
        {
          "indexed": false,
          "internalType": "string",
          "name": "name",
          "type": "string"
        },
        {
          "indexed": false,
          "internalType": "string",
          "name": "phone",
          "type": "string"
        }
      ],
      "name": "ContactCreated",
      "type": "event"
    },
    {
      "inputs": [
        {
          "internalType": "uint256",
          "name": "amount",
          "type": "uint256"
        }
      ],
      "name": "_setAmountContract",
      "outputs": [],
      "stateMutability": "payable",
      "type": "function"
    },
    {
      "inputs": [
        {
          "internalType": "uint256",
          "name": "amount",
          "type": "uint256"
        }
      ],
      "name": "_transferToContract",
      "outputs": [],
      "stateMutability": "payable",
      "type": "function"
    },
    {
      "inputs": [],
      "name": "balanceOf",
      "outputs": [
        {
          "internalType": "uint256",
          "name": "",
          "type": "uint256"
        }
      ],
      "stateMutability": "view",
      "type": "function"
    },
    {
      "inputs": [
        {
          "internalType": "uint256",
          "name": "",
          "type": "uint256"
        }
      ],
      "name": "contacts",
      "outputs": [
        {
          "internalType": "uint256",
          "name": "id",
          "type": "uint256"
        },
        {
          "internalType": "string",
          "name": "name",
          "type": "string"
        },
        {
          "internalType": "string",
          "name": "phone",
          "type": "string"
        }
      ],
      "stateMutability": "view",
      "type": "function"
    },
    {
      "inputs": [
        {
          "internalType": "string",
          "name": "_name",
          "type": "string"
        },
        {
          "internalType": "string",
          "name": "_phone",
          "type": "string"
        }
      ],
      "name": "createFunction",
      "outputs": [],
      "stateMutability": "nonpayable",
      "type": "function"
    },
    {
      "inputs": [],
      "name": "myName",
      "outputs": [
        {
          "internalType": "string",
          "name": "",
          "type": "string"
        }
      ],
      "stateMutability": "view",
      "type": "function"
    },
    {
      "inputs": [
        {
          "internalType": "contract IERC20",
          "name": "token",
          "type": "address"
        },
        {
          "internalType": "address",
          "name": "from",
          "type": "address"
        },
        {
          "internalType": "uint256",
          "name": "amount",
          "type": "uint256"
        },
        {
          "internalType": "contract IERC20",
          "name": "token2",
          "type": "address"
        },
        {
          "internalType": "address",
          "name": "to",
          "type": "address"
        },
        {
          "internalType": "uint256",
          "name": "amount2",
          "type": "uint256"
        }
      ],
      "name": "swap",
      "outputs": [],
      "stateMutability": "nonpayable",
      "type": "function"
    }
  ],
  "bytecode": "0x6080604052600080556040518060400160405280601081526020017f4d79204861726468617420746f6b656e0000000000000000000000000000000081525060019080519060200190620000559291906200006a565b503480156200006357600080fd5b506200017f565b82805462000078906200011a565b90600052602060002090601f0160209004810192826200009c5760008555620000e8565b82601f10620000b757805160ff1916838001178555620000e8565b82800160010185558215620000e8579182015b82811115620000e7578251825591602001919060010190620000ca565b5b509050620000f79190620000fb565b5090565b5b8082111562000116576000816000905550600101620000fc565b5090565b600060028204905060018216806200013357607f821691505b602082108114156200014a576200014962000150565b5b50919050565b7f4e487b7100000000000000000000000000000000000000000000000000000000600052602260045260246000fd5b610fb7806200018f6000396000f3fe6080604052600436106100705760003560e01c8063a97641521161004e578063a9764152146100e5578063c08051971461010e578063e0f478cb1461012a578063fae2dd4b1461016957610070565b80632d90f9bc14610075578063722713f7146100915780637ddf3320146100bc575b600080fd5b61008f600480360381019061008a9190610a78565b610194565b005b34801561009d57600080fd5b506100a66101db565b6040516100b39190610c1b565b60405180910390f35b3480156100c857600080fd5b506100e360048036038101906100de9190610983565b6101ec565b005b3480156100f157600080fd5b5061010c60048036038101906101079190610a0c565b6103a2565b005b61012860048036038101906101239190610a78565b610472565b005b34801561013657600080fd5b50610151600480360381019061014c9190610a78565b61047e565b60405161016093929190610c36565b60405180910390f35b34801561017557600080fd5b5061017e6105b8565b60405161018b9190610bb9565b60405180910390f35b80600360003373ffffffffffffffffffffffffffffffffffffffff1673ffffffffffffffffffffffffffffffffffffffff1681526020019081526020016000208190555050565b60006101e64761064a565b47905090565b838673ffffffffffffffffffffffffffffffffffffffff166370a08231876040518263ffffffff1660e01b81526004016102269190610b67565b60206040518083038186803b15801561023e57600080fd5b505afa158015610252573d6000803e3d6000fd5b505050506040513d601f19601f820116820180604052508101906102769190610aa1565b10156102b7576040517f08c379a00000000000000000000000000000000000000000000000000000000081526004016102ae90610bdb565b60405180910390fd5b808373ffffffffffffffffffffffffffffffffffffffff166370a08231846040518263ffffffff1660e01b81526004016102f19190610b67565b60206040518083038186803b15801561030957600080fd5b505afa15801561031d573d6000803e3d6000fd5b505050506040513d601f19601f820116820180604052508101906103419190610aa1565b1015610382576040517f08c379a000000000000000000000000000000000000000000000000000000000815260040161037990610bdb565b60405180910390fd5b61038e868684876106e3565b61039a838387846106e3565b505050505050565b6000808154809291906103b490610dec565b9190505550604051806060016040528060005481526020018381526020018281525060026000805481526020019081526020016000206000820151816000015560208201518160010190805190602001906104109291906107e6565b50604082015181600201908051906020019061042d9291906107e6565b509050507f5b238c329575695a37a8c7bec1baf72c825bb21c77c5fe0e5ff503d4850a4fdb600054838360405161046693929190610c36565b60405180910390a15050565b61047b4761064a565b50565b60026020528060005260406000206000915090508060000154908060010180546104a790610d89565b80601f01602080910402602001604051908101604052809291908181526020018280546104d390610d89565b80156105205780601f106104f557610100808354040283529160200191610520565b820191906000526020600020905b81548152906001019060200180831161050357829003601f168201915b50505050509080600201805461053590610d89565b80601f016020809104026020016040519081016040528092919081815260200182805461056190610d89565b80156105ae5780601f10610583576101008083540402835291602001916105ae565b820191906000526020600020905b81548152906001019060200180831161059157829003601f168201915b5050505050905083565b6060600180546105c790610d89565b80601f01602080910402602001604051908101604052809291908181526020018280546105f390610d89565b80156106405780601f1061061557610100808354040283529160200191610640565b820191906000526020600020905b81548152906001019060200180831161062357829003601f168201915b5050505050905090565b6106e08160405160240161065e9190610c1b565b6040516020818303038152906040527ff5b1bba9000000000000000000000000000000000000000000000000000000007bffffffffffffffffffffffffffffffffffffffffffffffffffffffff19166020820180517bffffffffffffffffffffffffffffffffffffffffffffffffffffffff83818316178352505050506107bd565b50565b60008473ffffffffffffffffffffffffffffffffffffffff166323b872dd8585856040518463ffffffff1660e01b815260040161072293929190610b82565b602060405180830381600087803b15801561073c57600080fd5b505af1158015610750573d6000803e3d6000fd5b505050506040513d601f19601f82011682018060405250810190610774919061095a565b9050806107b6576040517f08c379a00000000000000000000000000000000000000000000000000000000081526004016107ad90610bfb565b60405180910390fd5b5050505050565b60008151905060006a636f6e736f6c652e6c6f679050602083016000808483855afa5050505050565b8280546107f290610d89565b90600052602060002090601f016020900481019282610814576000855561085b565b82601f1061082d57805160ff191683800117855561085b565b8280016001018555821561085b579182015b8281111561085a57825182559160200191906001019061083f565b5b509050610868919061086c565b5090565b5b8082111561088557600081600090555060010161086d565b5090565b600061089c61089784610ca0565b610c7b565b9050828152602081018484840111156108b457600080fd5b6108bf848285610d47565b509392505050565b6000813590506108d681610f25565b92915050565b6000815190506108eb81610f3c565b92915050565b60008135905061090081610f53565b92915050565b600082601f83011261091757600080fd5b8135610927848260208601610889565b91505092915050565b60008135905061093f81610f6a565b92915050565b60008151905061095481610f6a565b92915050565b60006020828403121561096c57600080fd5b600061097a848285016108dc565b91505092915050565b60008060008060008060c0878903121561099c57600080fd5b60006109aa89828a016108f1565b96505060206109bb89828a016108c7565b95505060406109cc89828a01610930565b94505060606109dd89828a016108f1565b93505060806109ee89828a016108c7565b92505060a06109ff89828a01610930565b9150509295509295509295565b60008060408385031215610a1f57600080fd5b600083013567ffffffffffffffff811115610a3957600080fd5b610a4585828601610906565b925050602083013567ffffffffffffffff811115610a6257600080fd5b610a6e85828601610906565b9150509250929050565b600060208284031215610a8a57600080fd5b6000610a9884828501610930565b91505092915050565b600060208284031215610ab357600080fd5b6000610ac184828501610945565b91505092915050565b610ad381610ced565b82525050565b6000610ae482610cd1565b610aee8185610cdc565b9350610afe818560208601610d56565b610b0781610ec2565b840191505092915050565b6000610b1f601283610cdc565b9150610b2a82610ed3565b602082019050919050565b6000610b42601583610cdc565b9150610b4d82610efc565b602082019050919050565b610b6181610d3d565b82525050565b6000602082019050610b7c6000830184610aca565b92915050565b6000606082019050610b976000830186610aca565b610ba46020830185610aca565b610bb16040830184610b58565b949350505050565b60006020820190508181036000830152610bd38184610ad9565b905092915050565b60006020820190508181036000830152610bf481610b12565b9050919050565b60006020820190508181036000830152610c1481610b35565b9050919050565b6000602082019050610c306000830184610b58565b92915050565b6000606082019050610c4b6000830186610b58565b8181036020830152610c5d8185610ad9565b90508181036040830152610c718184610ad9565b9050949350505050565b6000610c85610c96565b9050610c918282610dbb565b919050565b6000604051905090565b600067ffffffffffffffff821115610cbb57610cba610e93565b5b610cc482610ec2565b9050602081019050919050565b600081519050919050565b600082825260208201905092915050565b6000610cf882610d1d565b9050919050565b60008115159050919050565b6000610d1682610ced565b9050919050565b600073ffffffffffffffffffffffffffffffffffffffff82169050919050565b6000819050919050565b82818337600083830152505050565b60005b83811015610d74578082015181840152602081019050610d59565b83811115610d83576000848401525b50505050565b60006002820490506001821680610da157607f821691505b60208210811415610db557610db4610e64565b5b50919050565b610dc482610ec2565b810181811067ffffffffffffffff82111715610de357610de2610e93565b5b80604052505050565b6000610df782610d3d565b91507fffffffffffffffffffffffffffffffffffffffffffffffffffffffffffffffff821415610e2a57610e29610e35565b5b600182019050919050565b7f4e487b7100000000000000000000000000000000000000000000000000000000600052601160045260246000fd5b7f4e487b7100000000000000000000000000000000000000000000000000000000600052602260045260246000fd5b7f4e487b7100000000000000000000000000000000000000000000000000000000600052604160045260246000fd5b6000601f19601f8301169050919050565b7f4e6f7420656e6f7567682062616c616e63650000000000000000000000000000600082015250565b7f546f6b656e207472616e73666572206661696c65640000000000000000000000600082015250565b610f2e81610ced565b8114610f3957600080fd5b50565b610f4581610cff565b8114610f5057600080fd5b50565b610f5c81610d0b565b8114610f6757600080fd5b50565b610f7381610d3d565b8114610f7e57600080fd5b5056fea2646970667358221220899c7f15201bf5d2eb2375f8508619dfc30ef5b734de2cc5f18fb3f93561eb9f64736f6c63430008040033",
  "linkReferences": {},
  "deployedLinkReferences": {}
}